8=FIX.4.4|9=173|35=D|34=1|52=20260427-20:54:49.882338|49=ALGO_DESK|56=EQUITY_GW|11=SPY-10910D6F|1=SPY-EQ-01|21=1|55=SPY|207=ARCA|54=1|38=500|40=2|44=567.90|59=0|60=20260427-20:54:49.884134|10=024|
8=FIX.4.4|9=198|35=8|34=2|52=20260427-20:54:52.887410|49=ALGO_DESK|56=EQUITY_GW|37=ORD-62FF13|17=EXC-8F94F4|150=0|39=0|11=SPY-10910D6F|55=SPY|207=ARCA|54=1|38=500|14=0|151=500|44=567.90|60=20260427-20:54:52.887543|10=018|
8=FIX.4.4|9=217|35=8|34=3|52=20260427-20:54:55.893078|49=ALGO_DESK|56=EQUITY_GW|37=ORD-62FF13|17=EXC-E2B7E7|150=1|39=1|11=SPY-10910D6F|55=SPY|207=ARCA|54=1|38=500|32=130|31=567.90|14=130|151=370|44=567.90|60=20260427-20:54:55.893191|10=152|
8=FIX.4.4|9=215|35=8|34=4|52=20260427-20:54:58.898662|49=ALGO_DESK|56=EQUITY_GW|37=ORD-62FF13|17=EXC-7A5EF8|150=2|39=2|11=SPY-10910D6F|55=SPY|207=ARCA|54=1|38=500|32=370|31=567.90|14=500|151=0|44=567.90|60=20260427-20:54:58.898800|10=070|
8=FIX.4.4|9=174|35=D|34=5|52=20260427-20:55:01.901182|49=ALGO_DESK|56=EQUITY_GW|11=SPY-CBD3B251|1=SPY-EQ-01|21=1|55=SPY|207=ARCA|54=1|38=1000|40=2|44=580.78|59=0|60=20260427-20:55:01.901296|10=067|
8=FIX.4.4|9=201|35=8|34=11|52=20260427-20:55:04.906505|49=ALGO_DESK|56=EQUITY_GW|37=ORD-DAFEED|17=EXC-9013DD|150=0|39=0|11=SPY-CBD3B251|55=SPY|207=ARCA|54=1|38=1000|14=0|151=1000|44=580.78|60=20260427-20:55:04.906672|10=204|
8=FIX.4.4|9=164|35=D|34=12|52=20260427-20:55:07.912482|49=ALGO_DESK|56=EQUITY_GW|11=SPY-88C0748F|1=SPY-EQ-01|21=1|55=SPY|207=ARCA|54=2|38=200|40=1|59=0|60=20260427-20:55:07.912584|10=106|
8=FIX.4.4|9=189|35=8|34=13|52=20260427-20:55:10.918189|49=ALGO_DESK|56=EQUITY_GW|37=ORD-4B7E85|17=EXC-C006B0|150=0|39=0|11=SPY-88C0748F|55=SPY|207=ARCA|54=2|38=200|14=0|151=200|60=20260427-20:55:10.918335|10=086|
8=FIX.4.4|9=219|35=8|34=14|52=20260427-20:55:13.923307|49=ALGO_DESK|56=EQUITY_GW|37=ORD-DAFEED|17=EXC-751DBC|150=2|39=2|11=SPY-CBD3B251|55=SPY|207=ARCA|54=1|38=1000|32=1000|31=580.78|14=1000|151=0|44=580.78|60=20260427-20:55:13.923379|10=047|
8=FIX.4.4|9=206|35=8|34=15|52=20260427-20:55:16.928706|49=ALGO_DESK|56=EQUITY_GW|37=ORD-4B7E85|17=EXC-8E4CBB|150=2|39=2|11=SPY-88C0748F|55=SPY|207=ARCA|54=2|38=200|32=200|31=570.32|14=200|151=0|60=20260427-20:55:16.928818|10=148|
8=FIX.4.4|9=174|35=D|34=16|52=20260427-20:55:19.932863|49=ALGO_DESK|56=EQUITY_GW|11=SPY-1D1ADC32|1=SPY-EQ-01|21=1|55=SPY|207=ARCA|54=1|38=300|40=2|44=577.38|59=0|60=20260427-20:55:19.932920|10=096|
8=FIX.4.4|9=199|35=8|34=17|52=20260427-20:55:22.935220|49=ALGO_DESK|56=EQUITY_GW|37=ORD-413C4E|17=EXC-C23F07|150=0|39=0|11=SPY-1D1ADC32|55=SPY|207=ARCA|54=1|38=300|14=0|151=300|44=577.38|60=20260427-20:55:22.935327|10=059|
8=FIX.4.4|9=216|35=8|34=18|52=20260427-20:55:25.940796|49=ALGO_DESK|56=EQUITY_GW|37=ORD-413C4E|17=EXC-B5C4F6|150=2|39=2|11=SPY-1D1ADC32|55=SPY|207=ARCA|54=1|38=300|32=300|31=577.38|14=300|151=0|44=577.38|60=20260427-20:55:25.940873|10=117|
8=FIX.4.4|9=174|35=D|34=19|52=20260427-20:55:28.946296|49=ALGO_DESK|56=EQUITY_GW|11=SPY-5E171780|1=SPY-EQ-01|21=1|55=SPY|207=ARCA|54=2|38=300|40=2|44=566.30|59=0|60=20260427-20:55:28.946392|10=070|
8=FIX.4.4|9=199|35=8|34=13|52=20260427-20:55:31.949609|49=ALGO_DESK|56=EQUITY_GW|37=ORD-F767F0|17=EXC-08C750|150=0|39=0|11=SPY-5E171780|55=SPY|207=ARCA|54=2|38=300|14=0|151=300|44=566.30|60=20260427-20:55:31.949768|10=041|
8=FIX.4.4|9=204|35=G|34=20|52=20260427-20:55:34.955368|49=ALGO_DESK|56=EQUITY_GW|41=SPY-5E171780|11=SPY-2C3F9BB7|37=ORD-F767F0|1=SPY-EQ-01|21=1|55=SPY|207=ARCA|54=2|38=500|40=2|44=570.25|59=0|60=20260427-20:55:34.955532|10=250|
8=FIX.4.4|9=218|35=8|34=21|52=20260427-20:55:37.956528|49=ALGO_DESK|56=EQUITY_GW|37=ORD-F767F0|17=EXC-548177|150=1|39=1|11=SPY-5E171780|55=SPY|207=ARCA|54=2|38=500|32=177|31=570.25|14=177|151=323|44=570.25|60=20260427-20:55:37.956732|10=164|
8=FIX.4.4|9=217|35=8|34=22|52=20260427-20:55:40.962440|49=ALGO_DESK|56=EQUITY_GW|37=ORD-F767F0|17=EXC-A3714B|150=1|39=1|11=SPY-5E171780|55=SPY|207=ARCA|54=2|38=500|32=86|31=570.25|14=263|151=237|44=570.25|60=20260427-20:55:40.962502|10=103|
8=FIX.4.4|9=179|35=F|34=23|52=20260427-20:55:43.967828|49=ALGO_DESK|56=EQUITY_GW|41=SPY-5E171780|11=SPY-28B2D3B7|37=ORD-F767F0|1=SPY-EQ-01|55=SPY|207=ARCA|54=2|38=500|60=20260427-20:55:43.968019|10=162|
8=FIX.4.4|9=174|35=D|34=24|52=20260427-20:55:46.968884|49=ALGO_DESK|56=EQUITY_GW|11=SPY-70468AA3|1=SPY-EQ-01|21=1|55=SPY|207=ARCA|54=1|38=100|40=2|44=582.04|59=0|60=20260427-20:55:46.968938|10=091|
8=FIX.4.4|9=173|35=D|34=1|52=20260427-21:08:08.526284|49=ALGO_DESK|56=EQUITY_GW|11=SPY-CCC01DB7|1=SPY-EQ-01|21=1|55=SPY|207=ARCA|54=1|38=500|40=2|44=573.17|59=3|60=20260427-21:08:08.527055|10=048|
8=FIX.4.4|9=198|35=8|34=2|52=20260427-21:08:11.528246|49=ALGO_DESK|56=EQUITY_GW|37=ORD-33463C|17=EXC-F680CB|150=0|39=0|11=SPY-CCC01DB7|55=SPY|207=ARCA|54=1|38=500|14=0|151=500|44=573.17|60=20260427-21:08:11.528453|10=025|
8=FIX.4.4|9=203|35=G|34=3|52=20260427-21:08:14.532654|49=ALGO_DESK|56=EQUITY_GW|41=SPY-CCC01DB7|11=SPY-9A6857F9|37=ORD-33463C|1=SPY-EQ-01|21=1|55=SPY|207=ARCA|54=1|38=100|40=2|44=573.55|59=0|60=20260427-21:08:14.532837|10=197|
8=FIX.4.4|9=215|35=8|34=4|52=20260427-21:08:17.534652|49=ALGO_DESK|56=EQUITY_GW|37=ORD-33463C|17=EXC-EDA915|150=2|39=2|11=SPY-CCC01DB7|55=SPY|207=ARCA|54=1|38=100|32=100|31=573.55|14=100|151=0|44=573.55|60=20260427-21:08:17.534859|10=045|
8=FIX.4.4|9=173|35=D|34=5|52=20260427-21:08:20.536407|49=ALGO_DESK|56=EQUITY_GW|11=SPY-3E71495A|1=SPY-EQ-01|21=1|55=SPY|207=ARCA|54=1|38=500|40=2|44=574.41|59=0|60=20260427-21:08:20.536525|10=255|
8=FIX.4.4|9=198|35=8|34=6|52=20260427-21:08:23.538500|49=ALGO_DESK|56=EQUITY_GW|37=ORD-FB8A36|17=EXC-030833|150=0|39=0|11=SPY-3E71495A|55=SPY|207=ARCA|54=1|38=500|14=0|151=500|44=574.41|60=20260427-21:08:23.538696|10=237|
8=FIX.4.4|9=174|35=D|34=7|52=20260427-21:08:26.543075|49=ALGO_DESK|56=EQUITY_GW|11=SPY-C582FEB7|1=SPY-EQ-01|21=1|55=SPY|207=ARCA|54=1|38=1000|40=2|44=562.21|59=3|60=20260427-21:08:26.543106|10=083|
8=FIX.4.4|9=200|35=8|34=8|52=20260427-21:08:29.548471|49=ALGO_DESK|56=EQUITY_GW|37=ORD-58F75D|17=EXC-2A246E|150=0|39=0|11=SPY-C582FEB7|55=SPY|207=ARCA|54=1|38=1000|14=0|151=1000|44=562.21|60=20260427-21:08:29.548629|10=130|
8=FIX.4.4|9=217|35=8|34=9|52=20260427-21:08:32.554230|49=ALGO_DESK|56=EQUITY_GW|37=ORD-FB8A36|17=EXC-4B83A2|150=1|39=1|11=SPY-3E71495A|55=SPY|207=ARCA|54=1|38=500|32=143|31=574.41|14=143|151=357|44=574.41|60=20260427-21:08:32.554338|10=132|
8=FIX.4.4|9=219|35=8|34=10|52=20260427-21:08:35.559786|49=ALGO_DESK|56=EQUITY_GW|37=ORD-58F75D|17=EXC-078EE2|150=2|39=2|11=SPY-C582FEB7|55=SPY|207=ARCA|54=1|38=1000|32=1000|31=562.21|14=1000|151=0|44=562.21|60=20260427-21:08:35.559943|10=250|
